{
  "contractName": "Voting",
  "abi": [
    {
      "inputs": [],
      "stateMutability": "nonpayable",
      "type": "constructor"
    },
    {
      "inputs": [],
      "name": "jumlahKandidat",
      "outputs": [
        {
          "internalType": "uint256",
          "name": "",
          "type": "uint256"
        }
      ],
      "stateMutability": "view",
      "type": "function"
    },
    {
      "inputs": [
        {
          "internalType": "uint256",
          "name": "",
          "type": "uint256"
        }
      ],
      "name": "paraKandidat",
      "outputs": [
        {
          "internalType": "uint256",
          "name": "id",
          "type": "uint256"
        },
        {
          "internalType": "string",
          "name": "nama",
          "type": "string"
        },
        {
          "internalType": "uint256",
          "name": "jumlahVote",
          "type": "uint256"
        }
      ],
      "stateMutability": "view",
      "type": "function"
    },
    {
      "inputs": [
        {
          "internalType": "address",
          "name": "",
          "type": "address"
        }
      ],
      "name": "paraPemilih",
      "outputs": [
        {
          "internalType": "bool",
          "name": "",
          "type": "bool"
        }
      ],
      "stateMutability": "view",
      "type": "function"
    },
    {
      "inputs": [
        {
          "internalType": "uint256",
          "name": "_kandidatId",
          "type": "uint256"
        }
      ],
      "name": "vote",
      "outputs": [],
      "stateMutability": "nonpayable",
      "type": "function"
    }
  ],
  "bytecode": "0x608060405234801562000010575f80fd5b50620000576040518060400160405280600a81526020017f4b616e6469646174203100000000000000000000000000000000000000000000815250620000a360201b60201c565b6200009d6040518060400160405280600a81526020017f4b616e6469646174203200000000000000000000000000000000000000000000815250620000a360201b60201c565b620004dd565b60025f815480929190620000b79062000152565b9190505550604051806060016040528060025481526020018281526020015f81525060015f60025481526020019081526020015f205f820151815f015560208201518160010190816200010b9190620003f9565b506040820151816002015590505050565b7f4e487b71000000000000000000000000000000000000000000000000000000005f52601160045260245ffd5b5f819050919050565b5f6200015e8262000149565b91507fffffffffffffffffffffffffffffffffffffffffffffffffffffffffffffffff82036200019357620001926200011c565b5b600182019050919050565b5f81519050919050565b7f4e487b71000000000000000000000000000000000000000000000000000000005f52604160045260245ffd5b7f4e487b71000000000000000000000000000000000000000000000000000000005f52602260045260245ffd5b5f60028204905060018216806200021a57607f821691505b60208210810362000230576200022f620001d5565b5b50919050565b5f819050815f5260205f209050919050565b5f6020601f8301049050919050565b5f82821b905092915050565b5f60088302620002947fffffffffffffffffffffffffffffffffffffffffffffffffffffffffffffffff8262000257565b620002a0868362000257565b95508019841693508086168417925050509392505050565b5f819050919050565b5f620002e1620002db620002d58462000149565b620002b8565b62000149565b9050919050565b5f819050919050565b620002fc83620002c1565b620003146200030b82620002e8565b84845462000263565b825550505050565b5f90565b6200032a6200031c565b62000337818484620002f1565b505050565b5b818110156200035e57620003525f8262000320565b6001810190506200033d565b5050565b601f821115620003ad57620003778162000236565b620003828462000248565b8101602085101562000392578190505b620003aa620003a18562000248565b8301826200033c565b50505b505050565b5f82821c905092915050565b5f620003cf5f1984600802620003b2565b1980831691505092915050565b5f620003e98383620003be565b9150826002028217905092915050565b62000404826200019e565b67ffffffffffffffff81111562000420576200041f620001a8565b5b6200042c825462000202565b6200043982828562000362565b5f60209050601f8311600181146200046f575f84156200045a578287015190505b620004668582620003dc565b865550620004d5565b601f1984166200047f8662000236565b5f5b82811015620004a85784890151825560018201915060208501945060208101905062000481565b86831015620004c85784890151620004c4601f891682620003be565b8355505b6001600288020188555050505b505050505050565b6105b280620004eb5f395ff3fe608060405234801561000f575f80fd5b506004361061004a575f3560e01c80630121b93f1461004e578063089ba5111461006a5780638076ad5a14610088578063c607b412146100b8575b5f80fd5b610068600480360381019061006391906102da565b6100ea565b005b6100726101d5565b60405161007f9190610314565b60405180910390f35b6100a2600480360381019061009d9190610387565b6101db565b6040516100af91906103cc565b60405180910390f35b6100d260048036038101906100cd91906102da565b6101f7565b6040516100e19392919061046f565b60405180910390f35b5f803373ffffffffffffffffffffffffffffffffffffffff1673ffffffffffffffffffffffffffffffffffffffff1681526020019081526020015f205f9054906101000a900460ff161561013c575f80fd5b5f8111801561014d57506002548111155b610155575f80fd5b60015f803373ffffffffffffffffffffffffffffffffffffffff1673ffffffffffffffffffffffffffffffffffffffff1681526020019081526020015f205f6101000a81548160ff02191690831515021790555060015f8281526020019081526020015f206002015f8154809291906101cd906104d8565b919050555050565b60025481565b5f602052805f5260405f205f915054906101000a900460ff1681565b6001602052805f5260405f205f91509050805f01549080600101805461021c9061054c565b80601f01602080910402602001604051908101604052809291908181526020018280546102489061054c565b80156102935780601f1061026a57610100808354040283529160200191610293565b820191905f5260205f20905b81548152906001019060200180831161027657829003601f168201915b5050505050908060020154905083565b5f80fd5b5f819050919050565b6102b9816102a7565b81146102c3575f80fd5b50565b5f813590506102d4816102b0565b92915050565b5f602082840312156102ef576102ee6102a3565b5b5f6102fc848285016102c6565b91505092915050565b61030e816102a7565b82525050565b5f6020820190506103275f830184610305565b92915050565b5f73ffffffffffffffffffffffffffffffffffffffff82169050919050565b5f6103568261032d565b9050919050565b6103668161034c565b8114610370575f80fd5b50565b5f813590506103818161035d565b92915050565b5f6020828403121561039c5761039b6102a3565b5b5f6103a984828501610373565b91505092915050565b5f8115159050919050565b6103c6816103b2565b82525050565b5f6020820190506103df5f8301846103bd565b92915050565b5f81519050919050565b5f82825260208201905092915050565b5f5b8381101561041c578082015181840152602081019050610401565b5f8484015250505050565b5f601f19601f8301169050919050565b5f610441826103e5565b61044b81856103ef565b935061045b8185602086016103ff565b61046481610427565b840191505092915050565b5f6060820190506104825f830186610305565b81810360208301526104948185610437565b90506104a36040830184610305565b949350505050565b7f4e487b71000000000000000000000000000000000000000000000000000000005f52601160045260245ffd5b5f6104e2826102a7565b91507fffffffffffffffffffffffffffffffffffffffffffffffffffffffffffffffff8203610514576105136104ab565b5b600182019050919050565b7f4e487b71000000000000000000000000000000000000000000000000000000005f52602260045260245ffd5b5f600282049050600182168061056357607f821691505b6020821081036105765761057561051f565b5b5091905056fea26469706673582212200a7c25dedafe8a7b933eb8f36d203ed6a6feecae499be7391aa52014ba2dd6b964736f6c63430008150033",
  "immutableReferences": {},
  "source": "// SPDX-License-Identifier: MIT\npragma solidity >=0.4.22 <0.9.0;\n\ncontract Voting {\n    struct Kandidat {\n        uint id;\n        string nama;\n        uint jumlahVote;\n    }\n    mapping(address => bool) public paraPemilih;\n    mapping(uint => Kandidat) public paraKandidat;\n    uint public jumlahKandidat;\n\n    constructor() public {\n        tambahKandidat(\"Kandidat 1\");\n        tambahKandidat(\"Kandidat 2\");\n    }\n\n    function tambahKandidat(string memory _nama) private {\n        jumlahKandidat++;\n        paraKandidat[jumlahKandidat] = Kandidat(jumlahKandidat, _nama, 0);\n    }\n\n    function vote(uint _kandidatId) public {\n        require(!paraPemilih[msg.sender]);\n        require(_kandidatId > 0 && _kandidatId <= jumlahKandidat);\n        paraPemilih[msg.sender] = true;\n        paraKandidat[_kandidatId].jumlahVote++;\n    }\n}\n",
  "sourcePath": "D:\\Dunia Perkuliahan\\Semester 7\\regular\\blockchain\\blockchain-aplikasi-voting\\contracts\\Voting.sol",
  "compiler": {
    "name": "solc",
    "version": "0.8.21+commit.d9974bed.Emscripten.clang"
  },
  "schemaVersion": "3.4.16",
  "updatedAt": "2023-11-15T16:47:44.921Z",
  "devdoc": {
    "kind": "dev",
    "methods": {},
    "version": 1
  },
  "userdoc": {
    "kind": "user",
    "methods": {},
    "version": 1
  }
}